:020000040800F2
:100000000050002055160008391600083B1600085D
:100010003D1600083F1600084116000800000000C9
:10002000000000000000000000000000431600086F
:100030004516000800000000471600084916000891
:100040009D1600089D1600089D1600089D160008C4
:100050009D1600089D1600089D1600089D160008B4
:100060009D1600089D1600089D1600089D160008A4
:100070009D1600089D1600089D1600089D16000894
:100080009D1600089D1600089D1600089D16000884
:100090009D1600089D1600089D1600089D16000874
:1000A0009D1600089D1600089D1600089D16000864
:1000B0009D1600089D1600089D1600089D16000854
:1000C0009D1600089D1600089D1600089D16000844
:1000D0009D1600089D160008111400089D160008C2
:1000E0009D1600089D1600089D16000800000000DF
:1000F0000000000000000000000000000000000000
:0C01000000000000000000005FF808F1A3
:10010C0010B5054C237833B9044B13B10448AFF345
:10011C0000800123237010BD540400200000000057
:10012C006C18000808B5034B1BB103490348AFF327
:10013C00008008BD00000000580400206C18000866
:10014C004FF0FF0C1CEAD0521EBF1CEAD15392EAAE
:10015C000C0F93EA0C0F6FD01A4480EA010C40028A
:10016C0018BF5FEA41211ED04FF0006343EA5010E4
:10017C0043EA5111A0FB01310CF00040B1F5000F26
:10018C003EBF490041EAD3715B0040EA010062F1D5
:10019C007F02FD2A1DD8B3F1004F40EBC25008BFBF
:1001AC0020F00100704790F0000F0CF0004C08BFDD
:1001BC0049024CEA502040EA51207F3AC2BFD2F1AA
:1001CC00FF0340EAC250704740F400004FF00003B8
:1001DC00013A5DDC12F1190FDCBF00F000407047F2
:1001EC00C2F10002410021FA02F1C2F1200200FA30
:1001FC0002FC5FEA310040F1000053EA4C0308BFF7
:10020C0020EADC70704792F0000F00F0004C02BF47
:10021C00400010F4000F013AF9D040EA0C0093F0C2
:10022C00000F01F0004C02BF490011F4000F013B1C
:10023C00F9D041EA0C018FE70CEAD15392EA0C0F8A
:10024C0018BF93EA0C0F0AD030F0004C18BF31F0F5
:10025C00004CD8D180EA010000F00040704790F0CB
:10026C00000F17BF90F0004F084691F0000F91F06F
:10027C00004F14D092EA0C0F01D142020FD193EA35
:10028C000C0F03D14B0218BF084608D180EA0100BD
:10029C0000F0004040F0FE4040F40000704740F099
:1002AC00FE4040F44000704780F0004002E000BF88
:1002BC0081F0004142001FBF5FEA410392EA030F45
:1002CC007FEA226C7FEA236C6AD04FEA1262D2EB8F
:1002DC001363C1BFD218414048404140B8BF5B4294
:1002EC00192B88BF704710F0004F40F4000020F02D
:1002FC007F4018BF404211F0004F41F4000121F043
:10030C007F4118BF494292EA030F3FD0A2F101028C
:10031C0041FA03FC10EB0C00C3F1200301FA03F1CA
:10032C0000F0004302D5494260EB4000B0F5000FED
:10033C0013D3B0F1807F06D340084FEA310102F1AC
:10034C000102FE2A51D2B1F1004F40EBC25008BF5E
:10035C0020F0010040EA03007047490040EB000028
:10036C00013A28BFB0F5000FEDD2B0FA80FCACF129
:10037C00080CB2EB0C0200FA0CF0AABF00EBC25056
:10038C0052421843BCBFD0401843704792F0000F44
:10039C0081F4000106BF80F400000132013BB5E797
:1003AC004FEA41037FEA226C18BF7FEA236C21D00D
:1003BC0092EA030F04D092F0000F08BF0846704772
:1003CC0090EA010F1CBF0020704712F07F4F04D140
:1003DC00400028BF40F00040704712F100723CBF53
:1003EC0000F50000704700F0004343F0FE4040F47D
:1003FC00000070477FEA226216BF08467FEA23633B
:10040C000146420206BF5FEA412390EA010F40F425
:10041C00800070474FF0000304E000BF10F0004371
:10042C0048BF40425FEA000C08BF704743F0964358
:10043C0001464FF000001CE050EA010208BF704773
:10044C004FF000030AE000BF50EA010208BF7047FA
:10045C0011F0004302D5404261EB41015FEA010C0F
:10046C0002BF84460146002043F0B64308BFA3F107
:10047C008053A3F50003BCFA8CF2083AA3EBC253E9
:10048C0010DB01FA02FC634400FA02FCC2F1200208
:10049C00BCF1004F20FA02F243EB020008BF20F03F
:1004AC000100704702F1200201FA02FCC2F12002A5
:1004BC0050EA4C0021FA02F243EB020008BF20EA9A
:1004CC00DC70704710B504460E4B18784FF47A73F5
:1004DC00B3FBF0F30C4A1068B0FBF3F000F0BAF881
:1004EC0068B90F2C01D901200AE0002221464FF0F7
:1004FC00FF3000F057F8054B1C60002000E0012095
:10050C0010BD00BF000000202000002004000020CF
:10051C0008B5074A136843F010031360032000F07A
:10052C002FF80020FFF7CEFF00F0F4FF002008BDED
:10053C0000200240034A1168034B1B780B441360E4
:10054C00704700BF7004002000000020014B1868A9
:10055C00704700BF7004002038B50446FFF7F6FF63
:10056C000546B4F1FF3F02D0044B1B781C44FFF747
:10057C00EDFF401BA042FAD338BD00BF00000020A5
:10058C00074AD36823F4E0631B041B0C000200F43D
:10059C00E060034343F0BF6343F40033D360704720
:1005AC0000ED00E000B5194BDB68C3F30223C3F187
:1005BC00070CBCF1040F28BF4FF0040C03F1040E20
:1005CC00BEF1060F18D9033B4FF0FF3E0EFA0CFCA0
:1005DC0021EA0C0199400EFA03F322EA03031943B2
:1005EC0000280BDB0901C9B200F1604000F5614045
:1005FC0080F800135DF804FB0023E5E700F00F0022
:10060C000901C9B2024B1954F4E700BF00ED00E038
:10061C0014ED00E0002807DB00F01F024009012365
:10062C009340024A42F82030704700BF00E100E0DE
:10063C0000280CDB00F01F024009012393402030FE
:10064C00034A42F82030BFF34F8FBFF36F8F7047D0
:10065C0000E100E00138B0F1807F0BD24FF0E023D5
:10066C005861054AF02182F8231000209861072276
:10067C001A6170470120704700ED00E070B582B040
:10068C000024A446A6E0804DAA4210D007D97F4D85
:10069C00AA420CD005F58035AA4208D013E0A5F586
:1006AC008015AA4203D005F57025AA4207D18A68A5
:1006BC00002A58D0012A51D04361082403E0A5F543
:1006CC008015AA42F3D0BEF1FF0F4ED80646BEF1FC
:1006DC00FF0F4CD84FEA8C0233680F25954023EA64
:1006EC00050304FA02F2134333604B6813F0805F86
:1006FC006ED0674B9A6942F001029A619B6903F0D4
:10070C0001030193019B4FEA9C02951C614B53F82A
:10071C0025600CF003039D000F23AB4026EA030673
:10072C005D4B984229D003F58063984200F08E808F
:10073C0003F58063984200F08B8003F58063984248
:10074C0019D004231AE0CC68BDE7CC680434BAE7AE
:10075C00CC680834B7E7CC680C34B4E703610824E0
:10076C00B1E70024AFE70424ADE7061DAFE7ACF119
:10077C0008029200B0E7032300E00023AB403343B0
:10078C000232444D45F822304B6813F4803F61D05F
:10079C00424A136843EA0E0313604B6813F4003F9C
:1007AC005ED03E4A536843EA0E0353604B6813F421
:1007BC00801F5BD0394A936843EA0E0393604B6801
:1007CC0013F4001F58D0354AD36843EA0E03D360A4
:1007DC000CF1010C0A6832FA0CF353D0012303FA22
:1007EC000CF302EA030E33EA0202F1D14A68122A30
:1007FC003FF649AF122A3FF666AF01A555F822F035
:10080C00BB060008530700085D0700086F070008C7
:10081C00D3060008D3060008D3060008D306000848
:10082C00D3060008D3060008D3060008D306000838
:10083C00D3060008D3060008D3060008D306000828
:10084C00D30600085707000863070008012395E743
:10085C00022393E7114A136823EA0E0313609CE703
:10086C000E4A536823EA0E0353609FE70B4A9368C2
:10087C0023EA0E039360A2E7084AD36823EA0E0327
:10088C00D360A5E702B070BD00002210000031104B
:10089C00001002400000014000080140000401402B
:1008AC000AB10161704709040161704782B0084BBD
:1008BC001B68084AA2FB03235B0A00FB03F30193AA
:1008CC0000BF019B5A1E0192002BF9D102B0704758
:1008DC0020000020D34D6210002800F0F18170B58B
:1008EC0082B00446036813F0010F2CD0994B5B685F
:1008FC0003F00C03042B1DD0964B5B6803F00C0328
:10090C00082B12D06368B3F5803F41D0002B55D132
:10091C0003F1804303F504331A6822F480321A6021
:10092C001A6822F480221A6037E08A4B5B6813F451
:10093C00803FE7D0874B1B6813F4003F03D06368FC
:10094C00002B00F0BF81236813F0020F75D0814B90
:10095C005B6813F00C0F5FD07E4B5B6803F00C03ED
:10096C00082B54D02369002B00F08A807A4B01228B
:10097C001A60FFF7EBFD0546764B1B6813F0020F70
:10098C0075D1FFF7E3FD401B0228F5D903209EE14A
:10099C00704A136843F480331360636843B3FFF702
:1009AC00D5FD05466B4B1B6813F4003FCBD1FFF70D
:1009BC00CDFD401B6428F5D9032088E1B3F5A02FA9
:1009CC0009D0644B1A6822F480321A601A6822F437
:1009DC0080221A60E1E703F18043A3F53C331A68E7
:1009EC0042F480221A601A6842F480321A60D4E70A
:1009FC00FFF7ACFD0546574B1B6813F4003FA2D024
:100A0C00FFF7A4FD401B6428F5D903205FE1514B8F
:100A1C005B6813F4803FA5D14E4B1B6813F0020F9B
:100A2C0003D02369012B40F04F814A4A136823F00D
:100A3C00F803616943EAC1031360236813F0080FDC
:100A4C0033D0A369002B5CD0434B0122C3F8802424
:100A5C00FFF77CFD05463F4B5B6A13F0020F21D17B
:100A6C00FFF774FD401B0228F5D903202FE1394A0A
:100A7C00136823F0F803616943EAC1031360DCE7F0
:100A8C00354B00221A60FFF761FD0546314B1B68A0
:100A9C0013F0020FD1D0FFF759FD401B0228F5D9F6
:100AAC00032014E10120FFF701FF236813F0040F6A
:100ABC0000F09680274BDB6913F0805F34D1254B17
:100ACC00DA6942F08052DA61DB6903F080530193FA
:100ADC00019B0125214B1B6813F4807F26D0E36812
:100AEC00012B3DD0002B53D103F1804303F504338C
:100AFC001A6A22F001021A621A6A22F004021A62BD
:100B0C0033E0154B0022C3F88024FFF71FFD054688
:100B1C00104B5B6A13F0020FC7D0FFF717FD401B99
:100B2C000228F5D90320D2E00025D3E70B4A13683D
:100B3C0043F480731360FFF709FD0646074B1B68EF
:100B4C0013F4807FCBD1FFF701FD801B6428F5D90E
:100B5C000320BCE000100240000042420070004044
:100B6C005F4A136A43F001031362E36833B3FFF780
:100B7C00EDFC06465A4B1B6A13F0020F2FD1FFF700
:100B8C00E5FC801B41F288339842F3D903209EE0A8
:100B9C00052B09D0524B1A6A22F001021A621A6A0A
:100BAC0022F004021A62E0E74D4B1A6A42F004028A
:100BBC001A621A6A42F001021A62D6E7FFF7C6FC03
:100BCC000646474B1B6A13F0020F08D0FFF7BEFC1A
:100BDC00801B41F288339842F3D9032077E0E5B9C2
:100BEC00E369002B72D03E4A526802F00C02082ACC
:100BFC0056D0022B17D03B4B00221A66FFF7A6FCEF
:100C0C000446374B1B6813F0007F47D0FFF79EFC60
:100C1C00001B0228F5D9032059E0314AD36923F08F
:100C2C008053D361DCE72F4B00221A66FFF78EFC52
:100C3C0005462B4B1B6813F0007F06D0FFF786FC94
:100C4C00401B0228F5D9032041E0236AB3F5803F0D
:100C5C001AD023494B6823F47413226A606A024346
:100C6C0013434B601F4B01221A66FFF76FFC0446BF
:100C7C001B4B1B6813F0007F0ED1FFF767FC001BAA
:100C8C000228F5D9032022E0154A536823F40033D7
:100C9C00A1680B435360DCE7002018E0002016E04D
:100CAC00012B16D00E4B5B6803F48031226A914203
:100CBC0011D103F47013626A93420ED1002006E046
:100CCC0001207047012002E0012000E0002002B06A
:100CDC0070BD0120FBE70120F9E70120F7E700BF19
:100CEC00001002400000424286B0174B0FCB0DF1B2
:100CFC00180C0CE90F0040F20123ADF80430134B33
:100D0C005B6803F00C02082A02D0114806B0704749
:100D1C00C3F3834218326A4412F8100C13F4803F68
:100D2C000DD00A4B5B68C3F3404318336B4413F884
:100D3C00143C074A02FB00F0B0FBF3F0E6E7054B6E
:100D4C0003FB00F0E2E700BF84180008001002402B
:100D5C0000127A0000093D00002800F0A08070B558
:100D6C000D460446524B1B6803F007038B420BD213
:100D7C004F4A136823F007030B431360136803F007
:100D8C0007038B4240F08D80236813F0020F17D0BD
:100D9C0013F0040F04D0474A536843F4E0635360E4
:100DAC00236813F0080F04D0424A536843F460538D
:100DBC005360404A536823F0F003A1680B4353601F
:100DCC00236813F0010F31D06368012B20D0022B64
:100DDC0025D0384A126812F0020F64D035494A689F
:100DEC0022F0030213434B60FFF7B0FB0646314B76
:100DFC005B6803F00C036268B3EB820F16D0FFF74D
:100E0C00A5FB801B41F288339842F0D9032045E0C2
:100E1C00284A126812F4003FE0D101203EE0254A36
:100E2C00126812F0007FD9D1012037E0204B1B68EB
:100E3C0003F00703AB420AD91D4A136823F00703DA
:100E4C002B431360136803F00703AB422DD12368C7
:100E5C0013F0040F06D0174A536823F4E063E168DB
:100E6C000B435360236813F0080F07D0114A5368E3
:100E7C0023F46053216943EAC1035360FFF734FF45
:100E8C000C4B5B68C3F303130B4AD35CD8400B4B7E
:100E9C0018600B4B1868FFF715FB002070BD012084
:100EAC0070470120FAE70120F8E70120F6E700BFC0
:100EBC00002002400010024098180008200000207A
:100ECC0004000020014B1868704700BF2000002070
:100EDC0008B5FFF7F7FF044B5B68C3F30223034A23
:100EEC00D35CD84008BD00BF00100240A818000811
:100EFC0008B5FFF7E7FF044B5B68C3F3C223034A53
:100F0C00D35CD84008BD00BF00100240A8180008F0
:100F1C0010B504460268136923F44053C1680B43AF
:100F2C00136183680269134342691A430168CB68F1
:100F3C0023F4B05323F00C031343CB6002685369C2
:100F4C0023F4407381690B4353610268134B9A423B
:100F5C0020D0FFF7BDFF024602EB820202EB8202B9
:100F6C0063689B00B2FBF3F20D48A0FB0231490908
:100F7C00642303FB11231B013233A0FB03235B0906
:100F8C0003F0F00202EB011203F00F03216813448B
:100F9C008B6010BDFFF7ACFF0246DDE70038014067
:100FAC001F85EB512DE9F84305460F461646994629
:100FBC00DDF820802C68246837EA04030CBF4FF05E
:100FCC00010C4FF0000CB4451FD1B8F1FF3FF1D02C
:100FDC00B8F1000F05D0FFF7B9FAA0EB09004045B6
:100FEC00E8D92A68D36823F4D073D3602A6853698C
:100FFC0023F001035361202385F83D3085F83E3002
:10100C00002385F83C30032000E00020BDE8F88385
:10101C0058B310B5044690F83D300BB3242384F834
:10102C003D302268D36823F40053D3602046FFF789
:10103C006FFF2268136923F490431361226853698C
:10104C0023F02A0353612268D36843F40053D3601E
:10105C0000202064202384F83D3084F83E3010BDFD
:10106C0080F83C3000F078FAD8E70120704700286F
:10107C0030D010B5044690F83D3033B3242384F8B7
:10108C003D302268D36823F40053D3602046FFF729
:10109C003FFF2268136923F490431361226853695C
:1010AC0023F0220353612268536943F00803536110
:1010BC002268D36843F40053D360002020642023BB
:1010CC0084F83D3084F83E3010BD80F83C3000F0A0
:1010DC0043FAD3E7012070472DE9F04182B01E4658
:1010EC0090F83D30DBB2202B54D104460D4690468F
:1010FC00002953D0002A53D090F83C30012B51D00A
:10110C00012380F83C3000230364212380F83D3018
:10111C00FFF71CFA0746A4F82480A4F82680A368DD
:10112C00B3F5805F05D04FF00008002384F83C3005
:10113C0012E0236913B14FF00008F6E7A84600252A
:10114C00F3E738F8023B2268C3F308035360E28CE0
:10115C0092B2013A92B2E284E38C9BB273B10096E4
:10116C003B46002280212046FFF71CFFE0B9002DF2
:10117C00E7D015F8012B23685A60E8E700963B4648
:10118C00002240212046FFF70DFF78B9202384F878
:10119C003D3000E0022002B0BDE8F0810120FAE70A
:1011AC000120F8E70220F6E70320F4E70320F2E73A
:1011BC0030B589B000240494059406940794184B18
:1011CC009A6942F010029A619A6902F01002019237
:1011DC00019A9A6942F020029A619A6902F02002FF
:1011EC000292029A9A6942F004029A619B6903F096
:1011FC0004030393039B0B4D22464FF400512846E6
:10120C00FFF74EFB4FF40053049301230593069410
:10121C000223079304A92846FFF730FA09B030BD22
:10122C00001002400010014008B50F4B1A6822F460
:10123C007F421A601A6842F4E0621A601A6842F43B
:10124C0080421A600948A3F5444303604FF4E1332C
:10125C00436000238360C36003610C22426183619D
:10126C00C361FFF704FF08BD00080140BC04002067
:10127C0008B50848084B03604FF4E1334360002382
:10128C008360C36003610C2242618361C361FFF719
:10129C00BFFE08BD780400200038014010B504469C
:1012AC00036840F6A6629A6001231A460449054871
:1012BC00FFF712FF23684FF49C729A6010BD00BFB9
:1012CC001C000020BC04002038B50D46002406E0AC
:1012DC00084901231A460848FFF7FEFE0134072C83
:1012EC0006DC45FA04F313F0010FF1D00349F0E7E3
:1012FC0038BD00BF74040020BC0400201D00002079
:10130C0010B50446FFF7CAFFCC212046FFF7DCFFDF
:10131C004E212046FFF7D8FF64212046FFF7D4FF6B
:10132C009E212046FFF7D0FF7F212046FFF7CCFF00
:10133C0010BD10B50446FFF7B1FFCC212046FFF7D6
:10134C00C3FF44212046FFF7BFFF10BD38B504464C
:10135C00FFF7A4FFCC212046FFF7B6FFBE212046A5
:10136C00FFF7B2FF002304E0E21800219171013372
:10137C00DBB2072BF8D90025657123685A68DA6847
:10138C0042F02002DA602620FFF744F928460EE0EE
:10139C0023681A6812F0800FFAD01A6812F0200F26
:1013AC00FBD1FF225A6001310729F1DD01300728FA
:1013BC0001DC0021F8E72620FFF73AF9024AD3684E
:1013CC0023F02003D36038BD0044004010B5044620
:1013DC00C379807940EA0320DB090BD0C04380B28B
:1013EC00FFF71CF84FF07651FEF7AAFE00F1004013
:1013FC00206110BDFFF712F84FF07651FEF7A0FEFA
:10140C002061F6E71B4B1B681A6812F0200F1ED0E8
:10141C00184A5279DAB9184A1278072A06D91749A4
:10142C000A7801320A70144A002111705B68FF2B94
:10143C000ED0114A13780133137000200F4B19781A
:10144C000C4B0B449A7902439A71072908D07047C8
:10145C00094B1878421C1A70012202FA00F0EDE7D1
:10146C00054B1B78062BF2D10023044A1370024A59
:10147C001370ECE708000020010500200005002097
:10148C0030B591B02822002106A800F027F90024DD
:10149C0001940294039404940594012206924FF44F
:1014AC00803307930A9202250D950E934FF4E013A7
:1014BC000F9306A8FFF710FA0F23019302950394DC
:1014CC004FF4806304930594294601A8FFF744FC6C
:1014DC0011B030BD08B5FFF71BF8FFF7D1FFFFF7D0
:1014EC0067FEFFF7A1FEFFF7C3FE0948FFF708FFF1
:1014FC00074C2046FFF71DFF4FF44870FFF72CF800
:10150C002046FFF723FF2046FFF760FFF0E700BF00
:10151C000800002082B00E4B9A6942F001029A61D9
:10152C009A6902F001020092009ADA6942F0805244
:10153C00DA61DB6903F080530193019B054A536820
:10154C0023F0E06343F00073536002B0704700BFB8
:10155C00001002400000014010B588B00023049335
:10156C0005930693079303682C4A934204D02C4AA4
:10157C0093422BD008B010BD2A4B9A6942F480429A
:10158C009A619A6902F480420092009A9A6942F038
:10159C0004029A619B6903F004030193019B4FF4CD
:1015AC000073049302230593032307931E4C04A991
:1015BC002046FFF763F84FF48063049300230593F0
:1015CC00069304A92046FFF759F8D3E7154BDA69BF
:1015DC0042F40032DA61DA6902F400320292029AC1
:1015EC009A6942F004029A619B6903F00403039325
:1015FC00039B0423049302230593032307930A4CB0
:10160C0004A92046FFF73AF8082304930023059316
:10161C00069304A92046FFF731F8ABE700380140E8
:10162C000044004000100240000801407047FEE7F3
:10163C00FEE7FEE7FEE770477047704708B5FEF718
:10164C0079FF08BD704700000C480D490D4A002376
:10165C0002E0D458C4500433C4188C42F9D30A4A5B
:10166C000A4C002301E013600432A242FBD3FFF7C3
:10167C00E9FF00F00FF8FFF72DFF70470000002086
:10168C0054040020C0180008540400200805002051
:10169C00FEE7000070B50D4E0D4D761BB61006D052
:1016AC00002455F8043B01349847A642F9D1094E61
:1016BC00094D00F0D5F8761BB61006D0002455F86D
:1016CC00043B01349847A642F9D170BDB418000808
:1016DC00B4180008BC180008B4180008830730B50B
:1016EC0048D0541E002A3FD00346CAB201E0013C48
:1016FC003AD303F8012B9D07F9D1032C2DD9CDB288
:10170C0045EA05250F2C45EA054536D9A4F110020A
:10171C0022F00F0C03F1200EE6444FEA121C03F1E9
:10172C00100242E9045542E9025510327245F8D1D3
:10173C000CF1010214F00C0F03EB021204F00F0C6D
:10174C0013D0ACF1040323F003030433134442F825
:10175C00045B9342FBD10CF003042CB1CAB21C44C1
:10176C0003F8012B9C42FBD130BD64461346002C80
:10177C00F4D1F9E703461446BFE71A46A446E0E75E
:10178C00024B13B1024800F005B87047000000008E
:10179C00AD170008002301461A46184600F01AB887
:1017AC0038B5084B084D5B1B9C1007D0043B1D44FF
:1017BC00013C55F804399847002CF9D1BDE8384064
:1017CC0000F054B8C0180008BC180008704700BFDF
:1017DC00704700BF2DE9F047DFF87CA00646DAF829
:1017EC00000098460F469146FFF7F0FF1B4B1B6815
:1017FC00D3F8484124B365681F2D26DC5EB96B1CF9
:10180C000235DAF80000636044F82570FFF7E0FF5A
:10181C000020BDE8F087012304EB8501C1F8889016
:10182C00D4F88821AB401A43022EC4F88821C1F8A1
:10183C000881E4D1D4F88C211343C4F88C31DEE751
:10184C0003F5A674C3F84841D5E7DAF80000FFF7B2
:10185C00BFFF4FF0FF30DCE750040020B018000849
:10186C00F8B500BFF8BC08BC9E467047F8B500BF81
:08187C00F8BC08BC9E46704751
:1018840002030405060708090A0B0C0D0E0F1010BD
:10189400000000000000000000000000010203043A
:1018A40006070809000000000102030428000020C4
:0818B4008D1700083101000846
:0418BC000D01000812
:1018C0000100000010000000004400400001000082
:1018D000000000000000000000000000F0FF000019
:1018E0000024F400000000000000000014030020A9
:1018F0007C030020E4030020000000000000000042
:1019000000000000000000000000000000000000D7
:1019100000000000000000000000000000000000C7
:1019200000000000000000000000000000000000B7
:1019300000000000000000000000000000000000A7
:101940000000000000000000000000000000000097
:101950000000000000000000000000000000000087
:101960000000000000000000000000000000000077
:101970000000000000000000000000000000000067
:101980000000000000000000000000000000000057
:1019900001000000000000000E33CDAB34126DE6F4
:1019A000ECDE05000B00000000000000000000005D
:1019B0000000000000000000000000000000000027
:1019C0000000000000000000000000000000000017
:1019D0000000000000000000000000000000000007
:1019E00000000000000000000000000000000000F7
:041D100004050020A6
:040000050800165584
:00000001FF
